:020000040800F2
:1000000000000120A5030008390300083F03000891
:10001000450300084B0300085103000800000000DE
:100020000000000000000000000000002137000870
:10003000570300080000000071390008650300083C
:10004000F5030008F5030008F5030008F5030008B0
:10005000F5030008F5030008F5030008F5030008A0
:10006000F5030008F5030008F5030008F503000890
:10007000F5030008F5030008F5030008F503000880
:10008000F5030008F5030008F5030008F503000870
:10009000F5030008F5030008F5030008F503000860
:1000A000F5030008F5030008F5030008F503000850
:1000B000F50300080000000000000000F503000840
:1000C000F50300080000000000000000F503000830
:1000D00000000000F5030008F50300080000000020
:1000E000F5030008F5030008000000000000000010
:1000F0000000000000000000000000000000000000
:10010000000000000000000000000000F5030008EF
:100110000000000000000000F5030008F5030008DF
:10012000F5030008F5030008F5030008F5030008CF
:10013000F5030008000000000000000000000000BF
:10014000F5030008F5030008F5030008F5030008AF
:10015000F5030008F5030008F5030008F50300089F
:10016000F5030008F5030008F5030008000000008F
:10017000F5030008F503000800000000000000007F
:0C018000F5030008F5030008F503000873
:1001900010B5054C237833B9044B13B10448AFF3C1
:1001A00000800123237010BD6000002000000000CB
:1001B000A040000808B5034B1BB103490348AFF347
:1001C000008008BD0000000064000020A04000087E
:1001D00080B500AF044A0021044801F049F9034604
:1001E000034A136000BF80BDDC400008F501000831
:1001F0007C00002080B582B000AF7860012001F063
:10020000C9F9FBE780B483B000AF094BDB6C084A47
:1002100043F00103D364064BDB6C03F001037B6006
:100220007B6800BF0C37BD465DF8047B704700BF9C
:100230000010024080B500AF00F0DDF800F009F8D2
:10024000FFF7E0FF01F0CAF8FFF7C2FF01F0EAF89C
:10025000FEE780B596B000AF07F1140344220021F9
:10026000184603F033FE3B4600221A605A609A603B
:10027000DA601A614FF4007000F026FA0346002B92
:1002800001D000F02CF810237B610123FB620023D6
:100290003B6360237B630023FB6307F11403184671
:1002A00000F068FA0346002B01D000F018F80F2385
:1002B0003B6000237B600023BB600023FB600023C6
:1002C0003B613B460021184600F068FE0346002BC8
:1002D00001D000F004F800BF5837BD4680BD80B49F
:1002E00000AF72B600BFFEE780B582B000AF114B21
:1002F0001B6E104A43F0010313660E4B1B6E03F096
:1003000001037B607B680B4B9B6D0A4A43F0805373
:100310009365084B9B6D03F080533B603B68002264
:100320000F216FF0010000F098F900BF0837BD46BB
:1003300080BD00BF0010024080B400AFFEE780B473
:1003400000AFFEE780B400AFFEE780B400AFFEE789
:1003500080B400AFFEE780B400AF00BFBD465DF8DB
:10036000047B704780B500AF00F09AF802F04AFDB8
:100370000346012B01D003F02FFB00BF80BD00001E
:1003800080B400AF064BD3F88830054A43F47003BD
:10039000C2F8883000BFBD465DF8047B704700BFDF
:1003A00000ED00E0DFF834D0FFF7EAFF0C480D491C
:1003B0000D4A002302E0D458C4500433C4188C42C0
:1003C000F9D30A4A0A4C002301E013600432A24226
:1003D000FBD303F0D9FDFFF72DFFFEE7000001205E
:1003E000000000206000002048410008600000205C
:1003F000641B0020FEE780B582B000AF0023FB71D4
:10040000032000F01FF90F2000F00EF80346002B28
:1004100002D00123FB7101E0FFF766FFFB7918466C
:100420000837BD4680BD000080B584B000AF78605D
:100430000023FB73174B1B78002B23D0164B1A6835
:10044000144B1B7819464FF47A73B3FBF1F3B2FBEC
:10045000F3F3184600F01DF90346002B0FD17B681B
:100460000F2B09D8002279684FF0FF3000F0F5F823
:100470000A4A7B68136007E00123FB7304E0012351
:10048000FB7301E00123FB73FB7B18461037BD466D
:1004900080BD00BF080000200000002004000020F4
:1004A00080B400AF064B1B781A46064B1B681344FA
:1004B000044A136000BFBD465DF8047B704700BF6F
:1004C000080000208000002080B400AF034B1B68B0
:1004D0001846BD465DF8047B704700BF80000020D1
:1004E00080B485B000AF78607B6803F00703FB60E1
:1004F0000C4BDB68BB60BA684FF6FF031340BB6070
:10050000FB681A02BB68134343F0BF6343F4003334
:10051000BB60044ABB68D36000BF1437BD465DF8BA
:10052000047B704700ED00E080B400AF044BDB6853
:100530001B0A03F007031846BD465DF8047B7047AD
:1005400000ED00E080B483B000AF03463960FB717A
:1005500097F90730002B0ADB3B68DAB20C4997F9B0
:1005600007301201D2B20B4483F800230AE03B6843
:10057000DAB20849FB7903F00F03043B1201D2B24F
:100580000B441A7600BF0C37BD465DF8047B7047FC
:1005900000E100E000ED00E080B489B000AFF86059
:1005A000B9607A60FB6803F00703FB61FB69C3F184
:1005B0000703042B28BF0423BB61FB690433062B0C
:1005C00002D9FB69033B00E000237B614FF0FF325F
:1005D000BB6902FA03F3DA43BB681A407B699A40AD
:1005E0004FF0FF317B6901FA03F3D9437B680B407D
:1005F000134318462437BD465DF8047B704700005E
:1006000080B582B000AF78607B68013BB3F1807F3A
:1006100001D301230FE00A4A7B68013B53600F219D
:100620004FF0FF30FFF78EFF054B00229A60044B1E
:1006300007221A60002318460837BD4680BD00BF58
:1006400010E000E080B582B000AF78607868FFF716
:1006500047FF00BF0837BD4680BD80B586B000AFFC
:100660000346B9607A60FB7300237B61FFF75CFF90
:1006700078617A68B9687869FFF78EFF024697F962
:100680000F3011461846FFF75DFF00BF1837BD4613
:1006900080BD80B582B000AF78607868FFF7B0FFAA
:1006A000034618460837BD4680BD000080B400AF41
:1006B000044B1B6803F4C0631846BD465DF8047B19
:1006C000704700BF0070004080B485B000AF786014
:1006D0007B68B3F5007F30D1234B1B6803F4C06304
:1006E000B3F5007F38D0204B1B6823F4C0631E4A4B
:1006F00043F4007313601D4B1B68322202FB03F3AB
:100700001B4AA2FB03239B0C0133FB6002E0FB6846
:10071000013BFB60144B5B6903F48063B3F5806FAE
:1007200002D1FB68002BF2D10F4B5B6903F48063AD
:10073000B3F5806F10D103230FE00B4B1B6803F45C
:10074000C063B3F5806F07D0074B1B6823F4C06309
:10075000054A43F480631360002318461437BD46EE
:100760005DF8047B704700BF00700040000000206F
:1007700083DE1B4380B588B000AF78607B68002BB8
:1007800002D1012300F002BC964B9B6803F00C03DE
:10079000BB61944BDB6803F003037B617B681B68E0
:1007A00003F01003002B00F0E480BB69002B07D09E
:1007B000BB690C2B40F08B807B69012B40F087805C
:1007C000884B1B6803F00203002B05D07B689B69F4
:1007D000002B01D10123D9E37B681A6A814B1B6886
:1007E00003F00803002B04D07E4B1B6803F0F003DA
:1007F00005E07C4BD3F894301B0903F0F0039342DF
:1008000023D27B681B6A184600F054FD0346002B78
:1008100001D00123BAE3734B1B68724A43F008030B
:100820001360704B1B6823F0F0027B681B6A6D49F4
:1008300013430B606B4B5B6823F47F427B68DB697F
:100840001B02684913434B6025E0664B1B68654AF1
:1008500043F008031360634B1B6823F0F0027B68CE
:100860001B6A604913430B605E4B5B6823F47F4255
:100870007B68DB691B025B4913434B60BB69002B40
:1008800009D17B681B6A184600F014FD0346002B53
:1008900001D001237AE300F081FC0246514B9B68B2
:1008A0001B0903F00F035049CB5C03F01F0322FA2E
:1008B00003F34E4A13604E4B1B681846FFF7B4FD16
:1008C0000346FB73FB7B002B52D0FB7B5EE37B6814
:1008D0009B69002B32D0434B1B68424A43F0010313
:1008E0001360FFF7F1FD386108E0FFF7EDFD024608
:1008F0003B69D31A022B01D9032347E3394B1B6809
:1009000003F00203002BF0D0364B1B68354A43F04E
:1009100008031360334B1B6823F0F0027B681B6AEB
:10092000304913430B602F4B5B6823F47F427B6895
:10093000DB691B022B4913434B601AE0294B1B68F0
:10094000284A23F001031360FFF7BEFD386108E079
:10095000FFF7BAFD02463B69D31A022B01D90323E4
:1009600014E3204B1B6803F00203002BF0D100E0DE
:1009700000BF7B681B6803F00103002B73D0BB69C9
:10098000082B05D0BB690C2B0ED17B69032B0BD137
:10099000144B1B6803F40033002B63D07B685B6847
:1009A000002B5FD10123F1E27B685B68B3F5803FE8
:1009B00006D10C4B1B680B4A43F48033136025E0CF
:1009C0007B685B68B3F5A02F14D1064B1B68054A02
:1009D00043F480231360034B1B68024A43F48033C3
:1009E000136013E0001002400041000800000020E6
:1009F00004000020A04B1B689F4A23F4803313603F
:100A00009D4B1B689C4A23F4802313607B685B68C2
:100A1000002B13D0FFF758FD386108E0FFF754FDB5
:100A200002463B69D31A642B01D90323AEE2924BF1
:100A30001B6803F40033002BF0D014E0FFF744FDF3
:100A4000386108E0FFF740FD02463B69D31A642B8A
:100A500001D903239AE2884B1B6803F40033002B6F
:100A6000F0D100E000BF7B681B6803F00203002B9D
:100A700060D0BB69042B05D0BB690C2B19D17B69F5
:100A8000022B16D17C4B1B6803F48063002B05D02E
:100A90007B68DB68002B01D1012377E2764B5B6832
:100AA00023F0F8527B681B691B06734913434B60A4
:100AB00040E07B68DB68002B23D06F4B1B686E4ADD
:100AC00043F480731360FFF7FFFC386108E0FFF721
:100AD000FBFC02463B69D31A022B01D9032355E2E2
:100AE000654B1B6803F48063002BF0D0624B5B689E
:100AF00023F0F8527B681B691B065F4913434B6068
:100B000018E05D4B1B685C4A23F480731360FFF7A9
:100B1000DBFC386108E0FFF7D7FC02463B69D31ADB
:100B2000022B01D9032331E2534B1B6803F480638A
:100B3000002BF0D17B681B6803F00803002B3CD02E
:100B40007B685B69002B1CD04B4BD3F894304A4A2E
:100B500043F00103C2F89430FFF7B6FC386108E0B7
:100B6000FFF7B2FC02463B69D31A022B01D90323DB
:100B70000CE2414BD3F8943003F00203002BEFD08A
:100B80001BE03D4BD3F894303B4A23F00103C2F8FD
:100B90009430FFF799FC386108E0FFF795FC0246B6
:100BA0003B69D31A022B01D90323EFE1324BD3F86F
:100BB000943003F00203002BEFD17B681B6803F035
:100BC0000403002B00F0A6800023FB772A4B9B6DCB
:100BD00003F08053002B0DD1274B9B6D264A43F029
:100BE00080539365244B9B6D03F08053BB60BB68BF
:100BF0000123FB77214B1B6803F48073002B18D172
:100C00001E4B1B681D4A43F480731360FFF75CFCA6
:100C1000386108E0FFF758FC02463B69D31A022B03
:100C200001D90323B2E1154B1B6803F48073002B39
:100C3000F0D07B689B68012B08D10F4BD3F8903024
:100C40000D4A43F00103C2F8903029E07B689B68AD
:100C5000052B15D1084BD3F89030074A43F0040315
:100C6000C2F89030044BD3F89030034A43F00103AC
:100C7000C2F8903014E000BF001002400070004045
:100C80009A4BD3F89030994A23F00103C2F8903080
:100C9000964BD3F89030954A23F00403C2F8903075
:100CA0007B689B68002B16D0FFF70EFC38610AE0CA
:100CB000FFF70AFC02463B69D31A41F2883293429D
:100CC00001D9032362E1894BD3F8903003F002038A
:100CD000002BEDD015E0FFF7F7FB38610AE0FFF7D6
:100CE000F3FB02463B69D31A41F28832934201D9A1
:100CF00003234BE17D4BD3F8903003F00203002B2C
:100D0000EDD1FB7F012B05D1784B9B6D774A23F00A
:100D1000805393657B681B6803F02003002B3CD055
:100D20007B685B6A002B1CD0704BD3F898306F4AFD
:100D300043F00103C2F89830FFF7C6FB386108E0C2
:100D4000FFF7C2FB02463B69D31A022B01D90323EA
:100D50001CE1664BD3F8983003F00203002BEFD070
:100D60001BE0624BD3F89830604A23F00103C2F8CD
:100D70009830FFF7A9FB386108E0FFF7A5FB0246B2
:100D80003B69D31A022B01D90323FFE0574BD3F859
:100D9000983003F00203002BEFD17B689B6A002B95
:100DA00000F0F3807B689B6A022B40F0C9804F4BB8
:100DB000DB687B617B6903F003027B68DB6A9A4234
:100DC0002CD17B6903F070027B681B6B013B1B011C
:100DD0009A4223D17B6903F4FE427B685B6B1B0262
:100DE0009A421BD17B6903F078427B689B6BDB06E0
:100DF0009A4213D17B6903F4C0027B68DB6B5B080A
:100E0000013B5B059A4209D17B6903F0C0627B68B4
:100E10001B6C5B08013B5B069A426BD0BB690C2BD9
:100E200062D0324B1B6803F08063002B01D001239A
:100E3000ACE02E4B1B682D4A23F080731360FFF744
:100E400043FB386108E0FFF73FFB02463B69D31ADA
:100E5000022B01D9032399E0244B1B6803F0007394
:100E6000002BF0D1214BDA68214B13407A68D16A0C
:100E70007A68126B013A120111437A68526B1202BE
:100E800011437A68D26B5208013A520511437A68CD
:100E9000126C5208013A520611437A68926BD206DC
:100EA0000A4312491343CB60104B1B680F4A43F0AF
:100EB000807313600D4BDB680C4A43F08073D36082
:100EC000FFF702FB386108E0FFF7FEFA02463B69D4
:100ED000D31A022B01D9032358E0044B1B6803F0FB
:100EE0000073002BF0D050E001234FE000100240CF
:100EF0008C809D01274B1B6803F00073002B44D1AD
:100F0000244B1B68234A43F080731360214BDB683A
:100F1000204A43F08073D360FFF7D6FA386108E0C7
:100F2000FFF7D2FA02463B69D31A022B01D90323F9
:100F30002CE0184B1B6803F00073002BF0D024E06A
:100F4000BB690C2B1FD0134B1B68124A23F0807314
:100F50001360FFF7B9FA386108E0FFF7B5FA024607
:100F60003B69D31A022B01D903230FE0094B1B68FD
:100F700003F00073002BF0D1064BDA680549064BED
:100F80001340CB6001E0012300E000231846203726
:100F9000BD4680BD00100240FCFFEEFE80B584B06F
:100FA00000AF786039607B68002B01D10123E7E056
:100FB000754B1B6803F007033A689A4210D9724BCD
:100FC0001B6823F0070270493B6813430B606E4BAC
:100FD0001B6803F007033A689A4201D00123CFE06F
:100FE0007B681B6803F00203002B10D07B689A68B3
:100FF000664B9B6803F0F0039A4208D9634B9B68E9
:1010000023F0F0027B689B68604913438B607B6828
:101010001B6803F00103002B4CD07B685B68032B3B
:1010200007D15A4B1B6803F00073002B21D1012319
:10103000A6E07B685B68022B07D1544B1B6803F466
:101040000033002B15D101239AE07B685B68002BED
:1010500007D14E4B1B6803F00203002B09D101237B
:101060008EE04A4B1B6803F48063002B01D10123FF
:1010700086E0464B9B6823F003027B685B6843492C
:1010800013438B60FFF720FAF8600AE0FFF71CFAC1
:101090000246FB68D31A41F28832934201D90323F6
:1010A0006EE03A4B9B6803F00C027B685B689B0028
:1010B0009A42EBD17B681B6803F00203002B10D02F
:1010C0007B689A68314B9B6803F0F0039A4208D220
:1010D0002E4B9B6823F0F0027B689B682B491343DF
:1010E0008B60294B1B6803F007033A689A4210D2C1
:1010F000254B1B6823F0070223493B6813430B6011
:10110000214B1B6803F007033A689A4201D0012380
:1011100036E07B681B6803F00403002B08D01B4BF0
:101120009B6823F4E0627B68DB68184913438B609B
:101130007B681B6803F00803002B09D0134B9B68E6
:1011400023F460527B681B69DB00104913438B60FA
:1011500000F024F802460D4B9B681B0903F00F03B7
:101160000B49CB5C03F01F0322FA03F3094A136017
:10117000094B1B681846FFF757F90346FB72FB7AC9
:1011800018461037BD4680BD0020024000100240C6
:1011900000410008000000200400002080B489B055
:1011A00000AF0023FB610023BB613E4B9B6803F053
:1011B0000C033B613B4BDB6803F00303FB603B69C3
:1011C000002B05D03B690C2B21D1FB68012B1ED1D4
:1011D000344B1B6803F00803002B07D1314BD3F8C5
:1011E00094301B0A03F00F03FB6105E02D4B1B68D5
:1011F0001B0903F00F03FB612B4AFB6952F82330F4
:10120000FB613B69002B0DD1FB69BB610AE03B69C7
:10121000042B02D1254BBB6104E03B69082B01D1B3
:10122000234BBB613B690C2B34D11E4BDB6803F0B5
:101230000303BB60BB68022B03D0BB68032B03D046
:1012400005E01A4B7B6105E0194B7B6102E0FB690D
:101250007B6100BF134BDB681B0903F007030133FD
:101260007B60104BDB681B0A03F07F037A6903FB8A
:1012700002F27B68B2FBF3F37B610A4BDB685B0E27
:1012800003F0030301335B003B607A693B68B2FB08
:10129000F3F3BB61BB6918462437BD465DF8047B98
:1012A000704700BF00100240104100080024F40005
:1012B00000127A0080B586B000AF786000233B61F1
:1012C0002A4B9B6D03F08053002B03D0FFF7EEF900
:1012D000786114E0254B9B6D244A43F0805393655D
:1012E000224B9B6D03F08053FB60FB68FFF7DEF938
:1012F00078611E4B9B6D1D4A23F0805393657B697B
:10130000B3F5007F0BD17B68802B19D97B68A02BAC
:1013100002D902233B6113E001233B6110E07B68AB
:10132000802B02D903233B610AE07B68802B02D12A
:1013300002233B6104E07B68702B01D101233B61F8
:101340000B4B1B6823F0070209493B6913430B60F1
:10135000074B1B6803F007033A699A4201D0012347
:1013600000E0002318461837BD4680BD001002403B
:101370000020024080B483B000AF03463960FB71A7
:1013800097F90730002B0ADB3B68DAB20C4997F972
:1013900007301201D2B20B4483F800230AE03B6805
:1013A000DAB20849FB7903F00F03043B1201D2B211
:1013B0000B441A7600BF0C37BD465DF8047B7047BE
:1013C00000E100E000ED00E080B500AF00216FF02B
:1013D0000400FFF7CFFF00BF80BD000080B483B0E2
:1013E00000AFEFF305833B603B68002B03D06FF049
:1013F00005037B600CE00A4B1B68002B05D1084BF2
:1014000001221A6000237B6002E04FF0FF337B6013
:101410007B6818460C37BD465DF8047B704700BFFB
:101420008400002080B582B000AFEFF305833B60FD
:101430003B68002B03D06FF005037B6010E00B4B83
:101440001B68012B09D1FFF7BFFF084B02221A606E
:1014500001F07CF800237B6002E04FF0FF337B60FB
:101460007B6818460837BD4680BD00BF8400002059
:1014700080B58EB004AFF860B9607A6000233B613C
:10148000EFF305837B617B69002B7ED1FB68002B2A
:101490007BD080233B621823FB6100237B624FF0EB
:1014A000FF33BB617B68002B45D07B681B68002B3A
:1014B00002D07B681B687B627B689B69002B02D033
:1014C0007B689B69FB61FB69002B08D0FB69382BAB
:1014D00005D87B685B6803F00103002B01D0002373
:1014E00054E07B685B69002B03D07B685B699B08D9
:1014F0003B627B689B68002B0ED07B68DB68A72B68
:101500000AD97B681B69002B06D07B685B69002BBE
:1015100002D00123BB6110E07B689B68002B0CD1DB
:101520007B68DB68002B08D17B681B69002B04D12A
:101530000023BB6101E00023BB61BB69012B10D11B
:101540007B681B697A68926802920193FB69009339
:10155000BB683A6A796AF86800F00CFE03463B61A2
:1015600013E0BB69002B10D13B6A9AB207F110035C
:101570000193FB690093BB68796AF86800F057FE35
:101580000346012B01D000233B613B6918462837F5
:10159000BD4680BD80B584B000AF7860EFF30583B1
:1015A000BB60BB68002B03D06FF00503FB6007E056
:1015B0000023FB607B68002B02D0786800F092FF6C
:1015C000FB6818461037BD4680BD000080B485B06A
:1015D00000AFF860B9607A60FB68074A1A60BB68C0
:1015E000064A1A607B6880221A6000BF1437BD4625
:1015F0005DF8047B704700BF8800002030010020A8
:1016000080B485B000AFF860B9607A60FB68074AC3
:101610001A60BB68064A1A607B684FF480721A60D1
:1016200000BF1437BD465DF8047B704730030020CF
:10163000D803002080B483B000AF78607B6803F1EA
:1016400008027B685A607B684FF0FF329A607B68C3
:1016500003F108027B68DA607B6803F108027B68AB
:101660001A617B6800221A6000BF0C37BD465DF826
:10167000047B704780B483B000AF78607B68002241
:101680001A6100BF0C37BD465DF8047B704780B41B
:1016900085B000AF786039607B685B68FB603B6851
:1016A000FA685A60FB689A683B689A60FB689B68B6
:1016B0003A685A60FB683A689A603B687A681A61CF
:1016C0007B681B685A1C7B681A6000BF1437BD46D4
:1016D0005DF8047B704780B485B000AF78603960F6
:1016E0003B681B68BB60BB68B3F1FF3F03D17B68FD
:1016F0001B69FB600CE07B680833FB6002E0FB6861
:101700005B68FB60FB685B681B68BA689A42F6D24C
:10171000FB685A683B685A603B685B683A689A6045
:101720003B68FA689A60FB683A685A603B687A6876
:101730001A617B681B685A1C7B681A6000BF1437EB
:10174000BD465DF8047B704780B485B000AF78601B
:101750007B681B69FB607B685B687A6892689A604B
:101760007B689B687A6852685A60FB685B687A6835
:101770009A4203D17B689A68FB685A607B680022B2
:101780001A61FB681B685A1EFB681A60FB681B68BD
:1017900018461437BD465DF8047B704780B584B0A9
:1017A00000AF786039607B68FB60FB68002B0AD172
:1017B0004FF0500383F31188BFF36F8FBFF34F8F48
:1017C000BB6000BFFEE702F075F8FB681A68FB68B3
:1017D000DB6BF968096C01FB03F31A44FB689A6040
:1017E000FB6800229A63FB681A68FB685A60FB6812
:1017F0001A68FB68DB6B013BF968096C01FB03F3BA
:101800001A44FB68DA60FB68FF2283F84420FB6817
:10181000FF2283F845203B68002B14D1FB681B692D
:10182000002B1AD0FB681033184601F029F9034643
:10183000002B12D00C4B4FF080521A60BFF34F8F29
:10184000BFF36F8F09E0FB6810331846FFF7F2FE15
:10185000FB6824331846FFF7EDFE02F05BF8012326
:1018600018461037BD4680BD04ED00E080B58EB04F
:1018700002AFF860B9607A603B60FB68002B0AD168
:101880004FF0500383F31188BFF36F8FBFF34F8F77
:10189000BB6200BFFEE73B68002B0AD14FF050034C
:1018A00083F31188BFF36F8FBFF34F8F7B6200BF4D
:1018B000FEE77B68002B02D0BB68002B01D0012320
:1018C00000E00023002B0AD14FF0500383F311886E
:1018D000BFF36F8FBFF34F8F3B6200BFFEE77B68A4
:1018E000002B02D1BB68002B01D1012300E00023B3
:1018F000002B0AD14FF0500383F31188BFF36F8F91
:10190000BFF34F8FFB6100BFFEE750237B617B6914
:10191000502B0AD04FF0500383F31188BFF36F8F21
:10192000BFF34F8FBB6100BFFEE77B693B68FB6283
:10193000FB6A002B0DD0FB6A012283F8462097F842
:101940003820FB6A009313467A68B968F86800F09B
:1019500005F8FB6A18463037BD4680BD80B584B0B7
:1019600000AFF860B9607A60FB70BB68002B03D1F0
:10197000BB69BA691A6002E0BB697A681A60BB6920
:10198000FA68DA63BB69BA681A640121B869FFF7BB
:1019900005FFBB69FA7883F84C2000BF1037BD46BD
:1019A00080BD000080B58EB000AFF860B9607A608D
:1019B0003B6000237B63FB683B633B6B002B0AD1DE
:1019C0004FF0500383F31188BFF36F8FBFF34F8F36
:1019D000BB6200BFFEE7BB68002B03D13B6B1B6CF7
:1019E000002B01D1012300E00023002B0AD14FF08E
:1019F000500383F31188BFF36F8FBFF34F8F7B6268
:101A000000BFFEE73B68022B03D13B6BDB6B012B76
:101A100001D1012300E00023002B0AD14FF0500335
:101A200083F31188BFF36F8FBFF34F8F3B6200BF0B
:101A3000FEE701F0E7F90346002B02D17B68002B9B
:101A400001D1012300E00023002B0AD14FF0500305
:101A500083F31188BFF36F8FBFF34F8FFB6100BF1C
:101A6000FEE701F027FF3B6B9A6B3B6BDB6B9A4207
:101A700002D33B68022B29D13A68B968386B00F071
:101A80000BFAF8623B6B5B6A002B10D03B6B243384
:101A9000184600F0F5FF0346002B13D03F4B4FF0E4
:101AA00080521A60BFF34F8FBFF36F8F0AE0FB6A5B
:101AB000002B07D0394B4FF080521A60BFF34F8F85
:101AC000BFF36F8F01F026FF012363E07B68002BDB
:101AD00003D101F01FFF00235CE07B6B002B06D1DC
:101AE00007F11403184601F02FF801237B6301F07E
:101AF00011FF00F09BFD01F0DDFE3B6B93F84430DD
:101B00005BB2B3F1FF3F03D13B6B002283F844206B
:101B10003B6B93F845305BB2B3F1FF3F03D13B6BB6
:101B2000002283F8452001F0F5FE3A1D07F1140369
:101B30001146184601F01EF80346002B24D1386BDD
:101B400000F0A2FA0346002B18D03B6B10337A68E2
:101B50001146184600F044FF386B00F02DFA00F0F3
:101B600073FD0346002B7FF47CAF0C4B4FF080528B
:101B70001A60BFF34F8FBFF36F8F72E7386B00F0BF
:101B80001BFA00F061FD6CE7386B00F015FA00F00D
:101B90005BFD002318463837BD4680BD04ED00E0EC
:101BA00080B590B000AFF860B9607A603B60FB68C8
:101BB000BB63BB6B002B0AD14FF0500383F311883A
:101BC000BFF36F8FBFF34F8FBB6200BFFEE7BB68F1
:101BD000002B03D1BB6B1B6C002B01D1012300E058
:101BE0000023002B0AD14FF0500383F31188BFF379
:101BF0006F8FBFF34F8F7B6200BFFEE73B68022B06
:101C000003D1BB6BDB6B012B01D1012300E000236F
:101C1000002B0AD14FF0500383F31188BFF36F8F6D
:101C2000BFF34F8F3B6200BFFEE701F025FFEFF3EC
:101C300011824FF0500383F31188BFF36F8FBFF30E
:101C40004F8FFA61BB61FB697B63BB6B9A6BBB6BAC
:101C5000DB6B9A4202D33B68022B2FD1BB6B93F80C
:101C6000453087F83330BB6B9B6BFB623A68B968D1
:101C7000B86B00F011F997F93330B3F1FF3F12D18F
:101C8000BB6B5B6A002B16D0BB6B2433184600F08D
:101C9000F7FE0346002B0ED07B68002B0BD07B6831
:101CA00001221A6007E097F833300133DBB25AB2F1
:101CB000BB6B83F845200123FB6301E00023FB633A
:101CC0007B6B7B617B6983F3118800BFFB6B1846DC
:101CD0004037BD4680BD000080B58CB000AFF860D5
:101CE000B9607A600023FB62FB68BB62BB6A002BB1
:101CF0000AD14FF0500383F31188BFF36F8FBFF306
:101D00004F8F3B6200BFFEE7BB68002B03D1BB6A6D
:101D10001B6C002B01D1012300E00023002B0AD112
:101D20004FF0500383F31188BFF36F8FBFF34F8FD2
:101D3000FB6100BFFEE701F065F80346002B02D10E
:101D40007B68002B01D1012300E00023002B0AD186
:101D50004FF0500383F31188BFF36F8FBFF34F8FA2
:101D6000BB6100BFFEE701F0A5FDBB6A9B6B7B6218
:101D70007B6A002B1FD0B968B86A00F0F7F87B6A5D
:101D80005A1EBB6A9A63BB6A1B69002B0FD0BB6AE1
:101D90001033184600F074FE0346002B07D03D4B6D
:101DA0004FF080521A60BFF34F8FBFF36F8F01F077
:101DB000B1FD012369E07B68002B03D101F0AAFD8E
:101DC000002362E0FB6A002B06D107F110031846DE
:101DD00000F0BAFE0123FB6201F09CFD00F026FC3E
:101DE00001F068FDBB6A93F844305BB2B3F1FF3F8A
:101DF00003D1BB6A002283F84420BB6A93F84530C4
:101E00005BB2B3F1FF3F03D1BB6A002283F84520E8
:101E100001F080FD3A1D07F110031146184600F04D
:101E2000A9FE0346002B23D1B86A00F017F9034638
:101E3000002B17D0BB6A24337A681146184600F08D
:101E4000CFFDB86A00F0B8F800F0FEFB0346002BA7
:101E500089D1104B4FF080521A60BFF34F8FBFF300
:101E60006F8F80E7B86A00F0A7F800F0EDFB7AE723
:101E7000B86A00F0A1F800F0E7FBB86A00F0EEF8ED
:101E80000346002B3FF46FAF002318463037BD46A2
:101E900080BD00BF04ED00E080B586B000AFF86003
:101EA000B9607A6000237B61FB689B6B3B61FB68D8
:101EB0001B6C002B0DD1FB681B68002B4DD1FB6800
:101EC0009B68184600F0BCFF7861FB6800229A60AE
:101ED00043E07B68002B19D1FB685868FB681B6CDA
:101EE0001A46B96802F076F8FB685A68FB681B6C02
:101EF0001A44FB685A60FB685A68FB689B689A4200
:101F00002BD3FB681A68FB685A6026E0FB68D86828
:101F1000FB681B6C1A46B96802F05CF8FB68DA686B
:101F2000FB681B6C5B421A44FB68DA60FB68DA688A
:101F3000FB681B689A4207D2FB689A68FB681B6CB7
:101F40005B421A44FB68DA607B68022B05D13B696F
:101F5000002B02D03B69013B3B613B695A1CFB688B
:101F60009A637B6918461837BD4680BD80B582B03C
:101F700000AF786039607B681B6C002B18D07B68E1
:101F8000DA687B681B6C1A447B68DA607B68DA6805
:101F90007B689B689A4203D37B681A687B68DA6027
:101FA0007B68D9687B681B6C1A46386802F012F8A7
:101FB00000BF0837BD4680BD80B584B000AF7860F3
:101FC00001F078FC7B6893F84530FB7311E07B6887
:101FD0005B6A002B12D07B682433184600F050FD5A
:101FE0000346002B01D000F027FEFB7B013BDBB258
:101FF000FB7397F90F30002BE9DC00E000BF7B6832
:10200000FF2283F8452001F085FC01F053FC7B683A
:1020100093F84430BB7311E07B681B69002B12D02E
:102020007B681033184600F02BFD0346002B01D0CF
:1020300000F002FEBB7B013BDBB2BB7397F90E30B5
:10204000002BE9DC00E000BF7B68FF2283F844201E
:1020500001F060FC00BF1037BD4680BD80B584B084
:1020600000AF786001F026FC7B689B6B002B02D1EF
:102070000123FB6001E00023FB6001F04BFCFB68E7
:1020800018461037BD4680BD80B584B000AF78607B
:1020900001F010FC7B689A6B7B68DB6B9A4202D183
:1020A0000123FB6001E00023FB6001F033FCFB68CF
:1020B00018461037BD4680BD80B485B000AF78604B
:1020C00039600023FB6014E00F4AFB6852F833309C
:1020D000002B0BD10C49FB683A6841F833200A4ABF
:1020E000FB68DB0013447A685A6006E0FB68013342
:1020F000FB60FB68072BE7D900BF00BF1437BD4664
:102100005DF8047B704700BFD807002080B586B01B
:1021100000AFF860B9607A60FB687B6101F0CAFBD0
:102120007B6993F844305BB2B3F1FF3F03D17B6925
:10213000002283F844207B6993F845305BB2B3F109
:10214000FF3F03D17B69002283F8452001F0E2FBC9
:102150007B699B6B002B06D17B6924337A68B96855
:10216000184600F061FC7869FFF726FF00BF1837BA
:10217000BD4680BD80B58EB004AFF860B9607A60AE
:102180003B607B6B002B0AD14FF0500383F3118827
:10219000BFF36F8FBFF34F8F3B6200BFFEE7BB6B98
:1021A000002B0AD14FF0500383F31188BFF36F8FD8
:1021B000BFF34F8FFB6100BFFEE7A8233B613B6984
:1021C000A82B0AD04FF0500383F31188BFF36F8F11
:1021D000BFF34F8FBB6100BFFEE73B69BB6B002BBA
:1021E0001ED07B6B002B1BD0BB6B7B627B6A7A6B38
:1021F0001A637B6A022283F8A520002303937B6A7B
:10220000029307F1140301933B6B00933B687A68D8
:10221000B968F86800F050F8786A00F0F3F801E067
:1022200000237B617B6918462837BD4680BD80B599
:102230008CB004AFF860B9603B601346FB80FB884C
:102240009B00184601F058FC78617B69002B0ED08A
:10225000A82001F051FCF861FB69002B03D0FB6959
:102260007A691A6305E0786901F012FD01E0002344
:10227000FB61FB69002B17D0FB69002283F8A520C6
:10228000FA8800230393FB690293FB6A0193BB6AFC
:1022900000933B68B968F86800F00EF8F86900F040
:1022A000B1F80123BB6102E04FF0FF33BB61BB69B2
:1022B00018462037BD4680BD80B588B000AFF860B5
:1022C000B9607A603B603B6B186B7B689B001A4679
:1022D000A52101F0FBFD3B6B1A6B7B6803F180438A
:1022E000013B9B001344BB61BB6923F00703BB6147
:1022F000BB6903F00703002B0AD04FF0500383F3B0
:102300001188BFF36F8FBFF34F8F7B6100BFFEE774
:10231000BB68002B1FD00023FB6112E0BA68FB6989
:10232000134419783A6BFB69134434330A461A7024
:10233000BA68FB6913441B78002B06D0FB69013394
:10234000FB61FB690F2BE9D900E000BF3B6B00226A
:1023500083F8432003E03B6B002283F83420BB6A00
:10236000372B01D93723BB623B6BBA6ADA623B6B0E
:10237000BA6ADA643B6B00221A653B6B0433184679
:10238000FFF778F93B6B18331846FFF773F93B6B8F
:102390003A6B1A61BB6AC3F138023B6B9A613B6BC3
:1023A0003A6B5A623B6B0022C3F8A0203B6B0022C1
:1023B00083F8A4203B6B54334C220021184601F0D3
:1023C00085FD3B6B0C4A9A653B6B0C4ADA653B6BAF
:1023D0000B4A1A663A68F968B86901F041F9024691
:1023E0003B6B1A60FB6A002B02D0FB6A3A6B1A60E7
:1023F00000BF2037BD4680BD241A00208C1A002063
:10240000F41A002080B582B000AF786001F052FA73
:102410002D4B1B6801332C4A13602C4B1B68002B7F
:1024200009D12A4A7B681360274B1B68012B10D106
:1024300000F026FC0DE0264B1B68002B09D1234B36
:102440001B68DA6A7B68DB6A9A4202D81F4A7B689B
:102450001360204B1B6801331E4A13601D4B1A6822
:102460007B685A647B68DA6A1B4B1B689A4203D903
:102470007B68DB6A184A13607B68DA6A13469B0044
:1024800013449B00154A1A447B68043319461046CE
:10249000FFF7FDF801F03EFA0D4B1B68002B0ED044
:1024A0000A4B1B68DA6A7B68DB6A9A4207D20C4BDC
:1024B0004FF080521A60BFF34F8FBFF36F8F00BF92
:1024C0000837BD4680BD00BFEC0C00201808002076
:1024D000F80C0020080D0020F40C00201C0800203F
:1024E00004ED00E080B584B000AF78600023FB60AD
:1024F0007B68002B17D0134B1B68002B0AD04FF0C2
:10250000500383F31188BFF36F8FBFF34F8FBB600E
:1025100000BFFEE700F08AF80021786800F0FEFCBA
:1025200000F092F8F860FB68002B07D1064B4FF0E3
:1025300080521A60BFF34F8FBFF36F8F00BF103709
:10254000BD4680BD140D002004ED00E080B58AB0CA
:1025500004AF0023BB6000237B603A46391D07F1BE
:1025600008031846FFF732F839687B68BA680292A8
:1025700001930023009300230A4624492448FFF7CF
:10258000F9FD0346234A1360224B1B68002B02D03F
:1025900001237B6101E000237B617B69012B02D178
:1025A00000F010FD78617B69012B1BD14FF05003C7
:1025B00083F31188BFF36F8FBFF34F8F3B6100BF71
:1025C000154B1B685433154A1360154B4FF0FF32FF
:1025D0001A60144B01221A60134B00221A6001F09A
:1025E000C7F80EE07B69B3F1FF3F0AD14FF050030B
:1025F00083F31188BFF36F8FBFF34F8FFB6000BF72
:10260000FEE700BF1837BD4680BD00BFC4400008CC
:10261000512C0008100D0020180800205C0000203C
:102620000C0D0020F80C0020F00C002080B400AF4E
:10263000044B1B680133034A136000BFBD465DF8BD
:10264000047B7047140D002080B584B000AF0023D8
:10265000FB600023BB60424B1B68002B0AD14FF08C
:10266000500383F31188BFF36F8FBFF34F8F3B602D
:1026700000BFFEE701F01EF9394B1B68013B384AE9
:102680001360374B1B68002B62D1364B1B68002B45
:102690005ED02FE0344BDB68DB68FB60FB681833EF
:1026A0001846FFF751F8FB6804331846FFF74CF85B
:1026B000FB68DA6A2D4B1B689A4203D9FB68DB6A18
:1026C0002A4A1360FB68DA6A13469B0013449B0096
:1026D000274A1A44FB68043319461046FEF7D7FF11
:1026E000FB68DA6A234B1B68DB6A9A4202D3224BEF
:1026F00001221A601C4B1B68002BCBD1FB68002BFE
:1027000001D000F05FFB1D4B1B687B607B68002BDA
:1027100010D000F047F80346002B02D0164B0122E0
:102720001A607B68013B7B607B68002BF1D1134B07
:1027300000221A60104B1B68002B09D00123BB60DC
:102740000F4B4FF080521A60BFF34F8FBFF36F8F64
:1027500001F0E0F8BB6818461037BD4680BD00BFE9
:10276000140D0020EC0C0020AC0C0020F40C002018
:102770001C08002018080020000D0020FC0C002080
:1027800004ED00E080B483B000AF054B1B687B60B4
:102790007B6818460C37BD465DF8047B704700BF68
:1027A000F00C002080B586B000AF00237B614F4B5A
:1027B0001B68002B40F08F804D4B1B6801333B6141
:1027C0004B4A3B6913603B69002B20D1494B1B6886
:1027D0001B68002B0AD04FF0500383F31188BFF31E
:1027E0006F8FBFF34F8F3B6000BFFEE7414B1B680D
:1027F000FB60414B1B683F4A13603F4AFB68136014
:102800003E4B1B6801333D4A136000F0DBFA3C4B42
:102810001B683A699A4249D3364B1B681B68002BE8
:1028200004D1374B4FF0FF321A603FE0314B1B6849
:10283000DB68DB68BB60BB685B687B603A697B68B0
:102840009A4203D22E4A7B6813602FE0BB680433A0
:102850001846FEF779FFBB689B6A002B04D0BB6863
:1028600018331846FEF770FFBB68DA6A254B1B6801
:102870009A4203D9BB68DB6A224A1360BB68DA6AF2
:1028800013469B0013449B001F4A1A44BB68043341
:1028900019461046FEF7FBFEBB68DA6A1B4B1B6845
:1028A000DB6A9A42B8D301237B61B5E7174B1B68FB
:1028B000DA6A154913469B0013449B000B441B68BE
:1028C000012B01D901237B61114B1B68002B07D021
:1028D00001237B6104E00F4B1B6801330D4A136039
:1028E0007B6918461837BD4680BD00BF140D002017
:1028F000F00C0020A40C0020A80C0020040D0020E7
:102900000C0D0020F40C00201C08002018080020EA
:10291000000D0020FC0C002080B485B000AF2A4BD5
:102920001B68002B03D0294B01221A6046E0274B7D
:1029300000221A60264B1B68FB6010E0FB68002B2E
:102940000AD14FF0500383F31188BFF36F8FBFF3A9
:102950004F8F7B6000BFFEE7FB68013BFB601D49BA
:10296000FA6813469B0013449B000B441B68002B22
:10297000E4D0FA6813469B0013449B00154A1344A5
:10298000BB60BB685B685A68BB685A60BB685A68C2
:10299000BB6808339A4204D1BB685B685A68BB685D
:1029A0005A60BB685B68DB680B4A1360084AFB68C7
:1029B0001360094B1B685433084A136000BF143777
:1029C000BD465DF8047B7047140D0020000D00200B
:1029D000F40C00201C080020180800205C000020D7
:1029E00080B584B000AF786039607B68002B0AD175
:1029F0004FF0500383F31188BFF36F8FBFF34F8FF6
:102A0000FB6000BFFEE7074B1B6818331946786868
:102A1000FEF761FE0121386800F080FA00BF103730
:102A2000BD4680BD1808002080B586B000AFF860B4
:102A3000B9607A60FB68002B0AD14FF0500383F332
:102A40001188BFF36F8FBFF34F8F7B6100BFFEE72D
:102A50000A4B1B6818331946F868FEF718FE7B68A6
:102A6000002B02D04FF0FF33BB607968B86800F0EC
:102A700055FA00BF1837BD4680BD00BF18080020BA
:102A800080B586B000AF78607B68DB68DB683B614F
:102A90003B69002B0AD14FF0500383F31188BFF339
:102AA0006F8FBFF34F8FFB6000BFFEE73B691833AA
:102AB0001846FEF749FE1E4B1B68002B1DD13B69D3
:102AC00004331846FEF740FE3B69DA6A194B1B686F
:102AD0009A4203D93B69DB6A164A13603B69DA6A9A
:102AE00013469B0013449B00134A1A443B6904336A
:102AF00019461046FEF7CBFD05E03B691833194631
:102B00000E48FEF7C4FD3B69DA6A0D4B1B68DB6AB1
:102B10009A4205D901237B610A4B01221A6001E028
:102B200000237B617B6918461837BD4680BD00BF16
:102B3000140D0020F40C00201C080020AC0C002018
:102B400018080020000D002080B483B000AF78602A
:102B5000064B1A687B681A60054B1A687B685A60D6
:102B600000BF0C37BD465DF8047B7047040D0020A4
:102B7000F00C002080B588B000AF786039607B68C9
:102B8000002B0AD14FF0500383F31188BFF36F8FEE
:102B9000BFF34F8F3B6100BFFEE73B68002B0AD1BC
:102BA0004FF0500383F31188BFF36F8FBFF34F8F44
:102BB000FB6000BFFEE700F07DFE1D4B1B68BB61A4
:102BC0007B685B68BA69D31A7B613B681B68B3F1A9
:102BD000FF3F02D10023FB6123E07B681A68154B9D
:102BE0001B689A4207D07B685B68BA699A4202D335
:102BF0000123FB6115E03B681B687A699A420BD29E
:102C00003B681A687B69D21A3B681A607868FFF7DC
:102C10009BFF0023FB6104E03B6800221A60012354
:102C2000FB6100F077FEFB6918462037BD4680BD8A
:102C3000F00C0020040D002080B400AF034B0122F3
:102C40001A6000BFBD465DF8047B7047000D002090
:102C500080B582B000AF786000F052F8064B1B6878
:102C6000012BF9D9054B4FF080521A60BFF34F8FFB
:102C7000BFF36F8FF0E700BF1C08002004ED00E0F9
:102C800080B582B000AF00237B600CE07A68134609
:102C90009B0013449B00124A13441846FEF7CAFCDB
:102CA0007B6801337B607B68372BEFD90D48FEF7DB
:102CB000C1FC0D48FEF7BEFC0C48FEF7BBFC0C48FF
:102CC000FEF7B8FC0B48FEF7B5FC0B4B054A1A6043
:102CD0000A4B054A1A6000BF0837BD4680BD00BFD9
:102CE0001C0800207C0C0020900C0020AC0C002064
:102CF000C00C0020D80C0020A40C0020A80C002040
:102D000080B582B000AF19E000F0D4FD104BDB6855
:102D1000DB687B607B6804331846FEF715FD0D4BBE
:102D20001B68013B0B4A13600B4B1B68013B0A4AB3
:102D3000136000F0EFFD786800F010F8064B1B6898
:102D4000002BE1D100BF00BF0837BD4680BD00BFEA
:102D5000C00C0020EC0C0020D40C002080B584B006
:102D600000AF78607B685433184601F0B7F87B6891
:102D700093F8A530002B08D17B681B6B184600F038
:102D800087FF786800F084FF18E07B6893F8A5302F
:102D9000012B03D1786800F07BFF0FE07B6893F88C
:102DA000A530022B0AD04FF0500383F31188BFF3F4
:102DB0006F8FBFF34F8FFB6000BFFEE700BF103780
:102DC000BD4680BD80B483B000AF0C4B1B681B6850
:102DD000002B04D10A4B4FF0FF321A6008E0074B7A
:102DE0001B68DB68DB687B607B685B68044A136098
:102DF00000BF0C37BD465DF8047B7047A40C002073
:102E00000C0D002080B483B000AF0B4B1B68002B6F
:102E100002D101237B6008E0084B1B68002B02D124
:102E200002237B6001E000237B607B6818460C373F
:102E3000BD465DF8047B7047F80C0020140D00209F
:102E400080B586B000AF78607B683B6100237B6112
:102E50007B68002B56D02E4B1B683A699A420AD0E9
:102E60004FF0500383F31188BFF36F8FBFF34F8F81
:102E7000FB6000BFFEE73B691B6D002B0AD14FF0E2
:102E8000500383F31188BFF36F8FBFF34F8FBB6085
:102E900000BFFEE73B691B6D5A1E3B691A653B6923
:102EA000DA6A3B69DB6C9A422CD03B691B6D002BC4
:102EB00028D13B6904331846FEF746FC3B69DA6CBF
:102EC0003B69DA623B69DB6AC3F138023B699A61AC
:102ED0003B69DA6A0F4B1B689A4203D93B69DB6A8C
:102EE0000C4A13603B69DA6A13469B0013449B004B
:102EF000094A1A443B69043319461046FEF7C7FBDA
:102F000001237B617B6918461837BD4680BD00BF31
:102F100018080020F40C00201C08002080B584B0A4
:102F200000AF78603960214B1B68FB60204B1B6849
:102F300004331846FEF708FC7B68B3F1FF3F0AD163
:102F40003B68002B07D01A4B1B68043319461948FD
:102F5000FEF79DFB26E0FA687B681344BB60144BC8
:102F60001B68BA685A60BA68FB689A4209D2124B69
:102F70001A680F4B1B68043319461046FEF7ABFB6B
:102F800010E00E4B1A680A4B1B68043319461046B2
:102F9000FEF7A1FB0A4B1B68BA689A4202D2084AA4
:102FA000BB68136000BF1037BD4680BDF00C002029
:102FB00018080020D80C0020A80C0020A40C002029
:102FC0000C0D002080B58AB004AF00237B6100F0B7
:102FD00007FB1C4B1B68002B21D00023FB60002348
:102FE000BB603A1D07F1080107F10C031846FEF714
:102FF00007FB7968BB68FA68029201930223009389
:1030000000230A4610491148FFF7B4F80346104A56
:1030100013600F4B1B68002B01D001237B617B6980
:10302000002B0AD14FF0500383F31188BFF36F8F49
:10303000BFF34F8F3B6100BFFEE77B69184618372F
:10304000BD4680BD480D0020CC40000889310008F5
:103050004C0D002080B58AB000AFF860B9607A608E
:103060003B6000237B62FB68002B0AD14FF05003CA
:1030700083F31188BFF36F8FBFF34F8F3B6200BFA5
:10308000FEE71A4B1B68002B2AD0BB683B617B68AC
:103090007B61FB68BB61BB68052B18DCFFF7B2FEE8
:1030A0000346022B09D1114B186807F110010023C8
:1030B0003A6BFEF777FC786212E00C4B186807F168
:1030C000100100230022FEF76DFC786208E0074B38
:1030D000186807F1100100233A68FEF761FD786275
:1030E0007B6A18462837BD4680BD00BF480D0020CA
:1030F00080B588B002AF78603960224B1B68DB680E
:10310000DB687B617B6904331846FEF71DFB7B6936
:1031100093F8283003F00403002B22D07B699A69CE
:103120007B68D1187B683A68786900F0D1F803466B
:10313000002B1FD00023009300237A6800217869B8
:10314000FFF788FF38613B69002B13D14FF0500324
:1031500083F31188BFF36F8FBFF34F8FFB6000BF06
:10316000FEE77B6993F8283023F00103DAB27B692C
:1031700083F828207B691B6A7869984700BF183755
:10318000BD4680BD400D002080B584B000AF7860A2
:1031900007F10803184600F057F8F860BB681946B5
:1031A000F86800F003F800F0D5F8F1E780B584B0D6
:1031B00000AF78603960FFF739FA07F10803184665
:1031C00000F066F8F860BB68002B30D13B68002B3C
:1031D0000AD17A68FB689A4206D8FFF735FAF9688F
:1031E0007868FFF785FF24E03B68002B08D0134B7D
:1031F0001B681B68002B01D1012300E000233B600A
:103200000F4B18687A68FB68D31A3A681946FEF7BC
:103210007DFFFFF719FA0346002B0AD1094B4FF047
:1032200080521A60BFF34F8FBFF36F8F01E0FFF73B
:103230000BFA00BF1037BD4680BD00BF440D002013
:10324000480D002004ED00E080B485B000AF786048
:103250000E4B1B681B68002B01D1012200E00022ED
:103260007B681A607B681B68002B05D1074B1B68C5
:10327000DB681B68FB6001E00023FB60FB6818460D
:103280001437BD465DF8047B704700BF400D002039
:1032900080B584B000AF7860FFF774FAF8600B4B2C
:1032A0001B68FA689A4205D200F036F97B68012261
:1032B0001A6002E07B6800221A60044AFB6813600F
:1032C000FB6818461037BD4680BD00BF500D00207A
:1032D00080B586B000AFF860B9607A603B600023CB
:1032E0007B61FB68BA685A60FB68FA681A61BA6861
:1032F0007B689A4212D87A683B68D21AFB689B694D
:103300009A4202D301237B611BE0104B1A68FB68D1
:10331000043319461046FEF7DEF912E07A683B687E
:103320009A4206D2BA683B689A4202D301237B6173
:1033300007E0074B1A68FB68043319461046FEF78E
:10334000CAF97B6918461837BD4680BD440D002078
:10335000400D002080B58EB002AFCAE07B68002B24
:1033600018DA3B1D0433FB62FB6A002B0AD14FF0D5
:10337000500383F31188BFF36F8FBFF34F8FFB614F
:1033800000BFFEE7FB6A1B68FA6A5068FA6A926837
:10339000114698477B68002BC0F2AB80FB68BB628C
:1033A000BB6A5B69002B04D0BB6A04331846FEF786
:1033B000CBF93B461846FFF76BFF78627B68092B19
:1033C00000F2968001A252F823F000BFF533000806
:1033D000F5330008F5330008693400087D3400082F
:1033E000C7340008F5330008F533000869340008D5
:1033F0007D340008BB6A93F8283043F00103DAB249
:10340000BB6A83F82820BA68BB6A9B69D118BB687D
:103410007A6AB86AFFF75CFF0346002B69D0BB6A83
:103420001B6AB86A9847BB6A93F8283003F0040314
:10343000002B5ED0BA68BB6A9B691A4400230093D4
:1034400000230021B86AFFF705FE38623B6A002BB3
:103450004FD14FF0500383F31188BFF36F8FBFF349
:103460004F8FBB6100BFFEE7BB6A93F8283023F0A3
:103470000103DAB2BB6A83F828203AE0BB6A93F80A
:10348000283043F00103DAB2BB6A83F82820BA6817
:10349000BB6A9A61BB6A9B69002B0AD14FF050034B
:1034A00083F31188BFF36F8FBFF34F8F7B6100BF32
:1034B000FEE7BB6A9A697B6AD1187B6A7A6AB86A46
:1034C000FFF706FF15E0BB6A93F8283003F002030C
:1034D000002B03D1B86A00F0DBFB0AE0BB6A93F86B
:1034E000283023F00103DAB2BB6A83F8282000E019
:1034F00000BF084B1B68391D00221846FEF7ECFB85
:103500000346002B7FF42AAF00BF00BF3037BD4613
:1035100080BD00BF480D002080B588B002AF48E0F4
:103520002D4B1B68DB681B683B612B4B1B68DB6802
:10353000DB68FB60FB6804331846FEF705F9FB689F
:103540001B6AF8689847FB6893F8283003F0040377
:10355000002B2ED0FB689B693A691344BB60BA68A4
:103560003B699A420ED9FB68BA685A60FB68FA68F0
:103570001A61194B1A68FB68043319461046FEF7A6
:10358000AAF816E00023009300233A690021F868A6
:10359000FFF760FD78607B68002B0AD14FF0500385
:1035A00083F31188BFF36F8FBFF34F8F3B6000BF72
:1035B000FEE7094B1B681B68002BB1D1064B1B684B
:1035C0007B61064B1B68044A1360044A7B691360E5
:1035D00000BF1837BD4680BD400D0020440D0020BF
:1035E00080B582B002AF00F065F9154B1B68002B67
:1035F00020D11448FEF71EF81348FEF71BF8134BB2
:10360000104A1A60124B104A1A6000230093114BA3
:10361000114A10210A20FEF729F90346084A1360CF
:10362000074B1B68002B05D0054B1B680B49184640
:10363000FEF742FD00F06EF900BFBD4680BD00BF41
:10364000480D0020180D00202C0D0020400D0020FA
:10365000440D0020F40D0020540D0020D44000083B
:1036600080B485B000AFF860B9607A60FB68043B55
:10367000FB60FB684FF080721A60FB68043BFB60E4
:10368000BB6823F00102FB681A60FB68043BFB6027
:103690000C4AFB681A60FB68143BFB607A68FB68A5
:1036A0001A60FB68043BFB60FB686FF002021A6063
:1036B000FB68203BFB60FB6818461437BD465DF88D
:1036C000047B7047C936000880B485B000AF002382
:1036D0007B60124B1B68B3F1FF3F0AD04FF05003E1
:1036E00083F31188BFF36F8FBFF34F8FFB6000BF71
:1036F000FEE74FF0500383F31188BFF36F8FBFF3E2
:103700004F8FBB6000BF00BF7B68002BFCD000BFA9
:1037100000BF1437BD465DF8047B70470C000020E5
:10372000074B19680868B0E8F04F80F30988BFF3C9
:103730006F8F4FF0000080F311887047AFF3008067
:103740001808002000BF00BF08480068006880F328
:1037500008884FF0000080F3148862B661B6BFF3AA
:103760004F8FBFF36F8F00DF00BF00BF08ED00E099
:1037700080B586B000AF464B1B68464A93420AD1DB
:103780004FF0500383F31188BFF36F8FBFF34F8F58
:103790003B6100BFFEE73E4B1B683F4A93420AD1A4
:1037A0004FF0500383F31188BFF36F8FBFF34F8F38
:1037B000FB6000BFFEE7394B7B617B691B78DBB2A6
:1037C0007B607B69FF221A707B691B78DBB2FB7020
:1037D000FB78DBB203F05003DAB2314B1A70314B95
:1037E00007221A6009E02F4B1B68013B2D4A13602A
:1037F000FB78DBB25B00DBB2FB70FB78DBB203F083
:103800008003802BEFD0274B1B68C3F10703042BE9
:103810000AD04FF0500383F31188BFF36F8FBFF3CB
:103820004F8FBB6000BFFEE71E4B1B681B021D4A8B
:1038300013601C4B1B6803F4E0631A4A13607B6837
:10384000DAB27B691A70184B1B68174A43F470038D
:103850001360154B1B68144A43F07043136000F06B
:10386000DDF8124B00221A6000F0FCF8104B1B68C8
:103870000F4A43F040431360FFF766FFFFF74CF831
:10388000FFF722FF002318461837BD4680BD00BF52
:1038900000ED00E071C20F4170C20F4100E400E092
:1038A000440E0020480E002020ED00E00C00002017
:1038B00034EF00E080B483B000AF4FF0500383F3E7
:1038C0001188BFF36F8FBFF34F8F7B6000BF0F4B2B
:1038D0001B6801330D4A13600C4B1B68012B0FD181
:1038E0000B4B1B68DBB2002B0AD04FF0500383F365
:1038F0001188BFF36F8FBFF34F8F3B6000BFFEE7B0
:1039000000BF0C37BD465DF8047B70470C000020FB
:1039100004ED00E080B483B000AF124B1B68002BB5
:103920000AD14FF0500383F31188BFF36F8FBFF3B9
:103930004F8F7B6000BFFEE70A4B1B68013B094AC3
:103940001360084B1B68002B05D100233B603B68CC
:1039500083F3118800BF00BF0C37BD465DF8047BC0
:10396000704700BF0C0000200000000000000000B5
:10397000EFF30980BFF36F8F154B1A681EF0100F1D
:1039800008BF20ED108A20E9F04F10602DE90900F2
:103990004FF0500080F31188BFF34F8FBFF36F8F4C
:1039A000FEF7BAFF4FF0000080F3118809BC1968D8
:1039B0000868B0E8F04F1EF0100F08BFB0EC108A96
:1039C00080F30988BFF36F8F704700BFAFF30080AB
:1039D0001808002000BF00BF80B582B000AF4FF0D4
:1039E000500383F31188BFF36F8FBFF34F8F7B605A
:1039F00000BFFEF7D7FE0346002B03D0064B4FF067
:103A000080521A6000233B603B6883F3118800BF3B
:103A100000BF0837BD4680BD04ED00E080B400AFB4
:103A20000B4B00221A600B4B00221A600A4B1B68DA
:103A30000A4AA2FB03239B09094A013B1360044B7A
:103A400007221A6000BFBD465DF8047B704700BFC7
:103A500010E000E018E000E000000020D34D62100C
:103A600014E000E0DFF80C00016841F4700101602F
:103A7000704700BF88ED00E080B485B000AFEFF381
:103A80000583FB60FB680F2B14D9174AFB681344AE
:103A90001B78FB72154B1B78FA7A9A420AD24FF0C8
:103AA000500383F31188BFF36F8FBFF34F8F7B6099
:103AB00000BFFEE70E4B1B6803F4E0620D4B1B6872
:103AC0009A420AD94FF0500383F31188BFF36F8FE6
:103AD000BFF34F8F3B6000BFFEE700BF1437BD460A
:103AE0005DF8047B704700BFF0E300E0440E002067
:103AF0000CED00E0480E002080B58AB000AF786081
:103B00000023FB61FEF792FD5B4B1B68002B01D18C
:103B100000F020F9594B1A687B681340002B40F0E5
:103B200093807B68002B1DD008227B6813447B6048
:103B30007B6803F00703002B14D07B6823F0070396
:103B400008337B607B6803F00703002B0AD04FF03B
:103B5000500383F31188BFF36F8FBFF34F8F7B61E7
:103B600000BFFEE77B68002B6ED0454B1B687A6870
:103B70009A4269D8434B3B62424B1B687B6204E02C
:103B80007B6A3B627B6A1B687B627B6A5B687A68E4
:103B90009A4203D97B6A1B68002BF1D1364B1B6814
:103BA0007A6A9A4250D03B6A1B6808221344FB6130
:103BB0007B6A1A683B6A1A607B6A5A687B68D21A09
:103BC00008235B009A421FD97A6A7B681344BB6161
:103BD000BB6903F00703002B0AD04FF0500383F3B7
:103BE0001188BFF36F8FBFF34F8F3B6100BFFEE7BC
:103BF0007B6A5A687B68D21ABB695A607B6A7A68AA
:103C00005A60B86900F008F91D4B1A687B6A5B6856
:103C1000D31A1B4A13601A4B1A681B4B1B689A4233
:103C200003D2174B1B68184A13607B6A5A68134B00
:103C30001B681A437B6A5A607B6A00221A60134B26
:103C40001B680133114A1360FEF7FEFCFB6903F0A9
:103C50000703002B0AD04FF0500383F31188BFF302
:103C60006F8FBFF34F8FFB6000BFFEE7FB69184605
:103C70002837BD4680BD00BF0C1A0020201A002046
:103C8000101A0020041A0020141A0020181A00200C
:103C900080B586B000AF78607B687B617B68002B65
:103CA0004DD008235B427A6913447B617B693B6199
:103CB0003B695A68244B1B681340002B0AD14FF014
:103CC000500383F31188BFF36F8FBFF34F8FFB60F7
:103CD00000BFFEE73B691B68002B0AD04FF0500382
:103CE00083F31188BFF36F8FBFF34F8FBB6000BFAB
:103CF000FEE73B695A68144B1B681340002B1ED02B
:103D00003B691B68002B1AD13B695A680E4B1B6834
:103D1000DB431A403B695A60FEF788FC3B695A68EE
:103D20000A4B1B681344094A1360386900F074F8A1
:103D3000074B1B680133064A1360FEF785FC00BF82
:103D40001837BD4680BD00BF201A0020101A002081
:103D50001C1A002080B485B000AF40F6B833BB60B9
:103D6000274BFB60FB6803F00703002B0CD0FB68BC
:103D70000733FB60FB6823F00703FB60BA68FB684E
:103D8000D31A1F4A1344BB60FB687B601D4A7B68E3
:103D900013601C4B00225A607B68BA681344FB60B6
:103DA0000822FB689B1AFB60FB6823F00703FB609B
:103DB000FB68154A1360144B1B6800225A60124BB3
:103DC0001B6800221A607B683B603B68FA68D21A65
:103DD0003B685A600C4B1A683B681A603B685B682A
:103DE0000A4A13603B685B68094A1360094B4FF04D
:103DF00000421A6000BF1437BD465DF8047B70476F
:103E00004C0E0020041A00200C1A0020141A002066
:103E1000101A0020201A002080B485B000AF78600E
:103E2000284BFB6002E0FB681B68FB60FB681B68BB
:103E30007A689A42F7D8FB68BB60FB685B68BA682F
:103E400013447A689A4208D1FB685A687B685B68B9
:103E50001A44FB685A60FB687B607B68BB607B68C8
:103E60005B68BA681A44FB681B689A4218D1FB6801
:103E70001A68154B1B689A420DD07B685A68FB681C
:103E80001B685B681A447B685A60FB681B681A6889
:103E90007B681A6008E00C4B1A687B681A6003E0C4
:103EA000FB681A687B681A60FA687B689A4202D0DD
:103EB000FB687A681A6000BF1437BD465DF8047B62
:103EC000704700BF041A00200C1A00200244034669
:103ED000934200D1704703F8011BF9E7294B1B6897
:103EE000834270B504464BD0C36943B1DB68002BF5
:103EF00044D1E369196811B1204600F079F861698D
:103F000011B1204600F074F8E16911B1204600F0CB
:103F10006FF8216B11B1204600F06AF8616B11B1A6
:103F2000204600F065F8A16B11B1204600F060F862
:103F3000A16C11B1204600F05BF8616C11B1204614
:103F400000F056F8E16A11B1204600F051F8236AFA
:103F5000B3B12046BDE870401847495941B904350E
:103F6000E369802DD968F8D1204600F041F8C0E718
:103F70000E68204600F03CF83146EFE70025EFE7F9
:103F800070BD00BF5C00002070B50D4D0D4C641B72
:103F9000A4100026A64209D10B4D0C4C00F080F86D
:103FA000641BA4100026A64205D170BD55F8043B41
:103FB00098470136EEE755F8043B98470136F2E79B
:103FC00040410008404100084041000844410008C9
:103FD000704770470A44914200F1FF3300D17047A7
:103FE00010B511F8014B03F8014F9142F9D110BD02
:103FF00037B5002944D051F8043C0190002BA1F1C1
:104000000404B8BFE41800F03FF81E4A0198136892
:1040100033B96360146003B0BDE8304000F03AB8D3
:10402000A34208D9256861198B4201BF19685B68F2
:1040300049192160EDE71A465B680BB1A342FAD932
:1040400011685518A5420BD1246821445418A34285
:104050001160E0D11C685B6853600C441460DAE7BF
:1040600002D90C230360D6E7256861198B4204BF8F
:1040700019685B68636004BF491921605460CAE72E
:1040800003B030BD601B00200148FFF7A1BF00BF97
:104090005C1B00200148FFF79CBF00BF5C1B002099
:1040A000F8B500BFF8BC08BC9E467047F8B500BF25
:0840B000F8BC08BC9E467047F5
:1040B800764D61696E5461736B00000049444C454C
:1040C80000000000546D722053766300546D7251E5
:1040D80000000000B84000080000000000000000D8
:1040E80000000000000000000002000018000000AE
:1040F80000000000000000000000000000000000B8
:104108000102030406070809A0860100400D030008
:10411800801A060000350C0040420F0080841E0003
:1041280000093D0000127A000024F40000366E01F8
:084138000048E801006CDC0204
:04414000B5010008BD
:0441440091010008DD
:1041480000093D001000000001000000AAAAAAAA68
:1041580000000000241A00208C1A0020F41A002005
:104168000000000000000000000000000000000047
:104178000000000000000000000000000000000037
:104188000000000000000000000000000000000027
:1041980000000000000000000000000010000020E7
:04000005080003A547
:00000001FF
